:020000040800F2
:100000000018002059240008DD230008E32300081D
:1000100000000000000000000000000000000000E0
:10002000000000000000000000000000E9230008BC
:100030000000000000000000F3230008FD2300087A
:10004000D9240008D9240008D9240008D92400089C
:10005000D9240008D9240008D9240008D92400088C
:10006000D9240008D9240008D9240008D92400087C
:10007000D9240008D9240008D9240008D92400086C
:10008000D92400080000000000000000D924000866
:1000900000000000D9240008D9240008D924000851
:1000A00000000000D9240008D9240008D924000841
:1000B000D924000800000000D9240008D924000831
:1000C00010B5064C2378002B07D1054B002B02D02E
:1000D000044800E000BF0123237010BDA0040020ED
:1000E0000000000008410008044B10B5002B03D0AD
:1000F0000349044800E000BF10BDC04600000000F6
:10010000A404002008410008002243088B4274D355
:1001100003098B425FD3030A8B4244D3030B8B4208
:1001200028D3030C8B420DD3FF22090212BA030C11
:100130008B4202D31212090265D0030B8B4219D3F2
:1001400000E0090AC30B8B4201D3CB03C01A524112
:10015000830B8B4201D38B03C01A5241430B8B425A
:1001600001D34B03C01A5241030B8B4201D30B0343
:10017000C01A5241C30A8B4201D3CB02C01A52416A
:10018000830A8B4201D38B02C01A5241430A8B422D
:1001900001D34B02C01A5241030A8B4201D30B0216
:1001A000C01A5241CDD2C3098B4201D3CB01C01A30
:1001B000524183098B4201D38B01C01A524143093A
:1001C0008B4201D34B01C01A524103098B4201D328
:1001D0000B01C01A5241C3088B4201D3CB00C01A95
:1001E000524183088B4201D38B00C01A524143080D
:1001F0008B4201D34B00C01A5241411A00D2014632
:10020000524110467047FFE701B5002000F006F8A4
:1002100002BDC0460029F7D076E770477047C04658
:1002200080B582B000AF0200FB1D1A70FB1D1B7869
:10023000024AD35C1800BD4602B080BD0000002019
:1002400080B584B000AF0023FB6030E06A4B1A68D1
:10025000FB689B00D218FB689B001178674AD15459
:10026000654B1A68FB689B000133D218FB689B0042
:1002700001331178614AD1545F4B1A68FB689B00C7
:100280000233D218FB689B00023311785B4AD154C9
:10029000594B1A68FB689B000333D218FB689B001C
:1002A00003331178554AD154FB680133FB60FB6876
:1002B000032BCBD996E00023BB600EE0FB68013B2B
:1002C0009A00BB68D3184D4AD15C3A00BB68D3187A
:1002D0000A1C1A70BB680133BB60BB68032BEDD9E5
:1002E000FB680322134040D13B001B787B603B003E
:1002F0005A783B001A703B009A783B005A703B00DA
:10030000DA783B009A707B68DAB23B00DA703B0027
:100310001B781800FFF784FF03001A003B001A70D7
:100320003B005B781800FFF77BFF03001A003B00DF
:100330005A703B009B781800FFF772FF03001A0009
:100340003B009A703B00DB781800FFF769FF030061
:100350001A003B00DA703B001A78FB689B082849BA
:10036000CB5C5340DAB23B001A70FB68043B9B0045
:10037000224AD15C3B001A78FB689B004A40D1B20C
:100380001E4AD154FB68043B9B0001331B4AD15CDD
:100390003B005A78FB689B0001334A40D1B2174AB0
:1003A000D154FB68043B9B000233144AD15C3B00F0
:1003B0009A78FB689B0002334A40D1B20F4AD1546D
:1003C000FB68043B9B0003330C4AD15C3B00DA78AA
:1003D000FB689B0003334A40D1B2084AD154FB6802
:1003E0000133FB60FB682B2B00D864E7C046C04696
:1003F000BD4604B080BDC04680050020C00400207A
:1004000000010020F0B585B000AF0200FB1D1A709E
:100410000F23FB1800221A7038E00E23FB1800226D
:100420001A7028E01E4B19680F26BB191A780E2087
:100430003B181B7892008A18D45CFB1D1B789A002D
:10044000BB191B78D3189A0005003B181B78D318EA
:10045000144AD05C124B1968BB191A787B191B78A7
:100460006040C0B292008A18011CD1547B197A19DD
:10047000127801321A700E23FB181B78032BD1D986
:100480000F22BB18BA18127801321A700F23FB180A
:100490001B78032BC1D9C046C046BD4605B0F0BD90
:1004A000BC040020C0040020F0B583B000AFFB1DE9
:1004B00000221A7028E0BB1D00221A701BE0174BA7
:1004C0001968BB1D1A78FB1D1B7892008A18D25C34
:1004D000124B1D68BB1D1E78FB1D1C781000FFF71A
:1004E0009FFE03001A00B300EB181A55BB1DBA1D7E
:1004F000127801321A70BB1D1B78032BDFD9FB1D4C
:10050000FA1D127801321A70FB1D1B78032BD2D909
:10051000C046C046BD4603B0F0BDC046BC04002086
:1005200080B582B000AF2E4B1A68FB1D52781A704E
:100530002B4B1A682A4B1B6852795A70284B1A6841
:10054000274B1B68527A5A71254B1A68244B1B683B
:10055000527B5A72224B1B68FA1D12785A73204B39
:100560001A68FB1D92781A701D4B1A681C4B1B6889
:10057000927A9A701A4B1B68FA1D12789A72184B6D
:100580001A68FB1D92791A70154B1A68144B1B6878
:10059000927B9A71124B1B68FA1D12789A73104B5A
:1005A0001A68FB1DD2781A700D4B1A680C4B1B6829
:1005B000D27BDA700A4B1A68094B1B68D27ADA735D
:1005C000074B1A68064B1B68D279DA72044B1B681A
:1005D000FA1D1278DA71C046BD4602B080BDC04631
:1005E000BC04002080B582B000AF0200FB1D1A7071
:1005F000FB1D1B785B005AB2FB1D1B78DB09DBB2CD
:10060000191C0B1CDB185B18191CC800191C031CD7
:10061000CB18DBB25BB253405BB2DBB21800BD4615
:1006200002B080BD90B583B000AFFB1D00221A70F0
:10063000F4E07F4B1A68FB1D1978BB1D89008A5CAA
:100640001A707B4B1B68FA1D12789200D25C784BB3
:100650001968FB1D1B789B00CB1801331B78534096
:10066000DAB2734B1968FB1D1B789B00CB18023361
:100670001B785340D9B26E4B1A68FB1D1B789B0048
:10068000D31803331A787B1D4A401A70684B1B68D5
:10069000FA1D12789200D15C654B1A68FB1D1B781D
:1006A0009B00D31801331A783B1D4A401A703C1D39
:1006B0003B1D1B781800FFF795FF030023705C4B70
:1006C0001B68FA1D12789200D05C3A1D7B1D1278CF
:1006D0001B785340D9B2564B1B68FA1D1278414023
:1006E000C9B29200D154524B1A68FB1D1B789B0073
:1006F000D318013319784E4B1A68FB1D1B789B00E9
:10070000D31802331A783B1D4A401A703C1D3B1D1A
:100710001B781800FFF766FF03002370444B1A682C
:10072000FB1D1B789B00D318013318783A1D7B1DE5
:1007300012781B785340D9B23D4B1A68FB1D1B78C9
:100740004140C9B29B00D31801330A1C1A70384BC0
:100750001A68FB1D1B789B00D31802331978344BA1
:100760001A68FB1D1B789B00D31803331A783B1DB6
:100770004A401A703C1D3B1D1B781800FFF732FFE2
:10078000030023702A4B1A68FB1D1B789B00D318AB
:10079000023318783A1D7B1D12781B785340D9B26A
:1007A000234B1A68FB1D1B784140C9B29B00D3182C
:1007B00002330A1C1A701E4B1A68FB1D1B789B0023
:1007C000D318033319783B1DBA1D12784A401A70AA
:1007D0003C1D3B1D1B781800FFF704FF030023702E
:1007E000134B1A68FB1D1B789B00D3180333187832
:1007F0003A1D7B1D12781B785340D9B20C4B1A68F6
:10080000FB1D1B784140C9B29B00D31803330A1C5F
:100810001A70FB1DFA1D127801321A70FB1D1B782D
:10082000032B00D805E7C046C046BD4603B090BDC7
:10083000BC04002080B582B000AFFB1D00221A70FE
:100840000020FFF7DFFDFB1D01221A700FE0FFF70C
:100850002BFEFFF765FEFFF7E5FEFB1D1B7818007A
:10086000FFF7D0FDFB1DFA1D127801321A70FB1D37
:100870001B78092BEBD9FFF717FEFFF751FE0A2073
:10088000FFF7C0FDC046BD4602B080BD80B584B054
:1008900000AF786039600F23FB1800221A700FE058
:1008A0000F203B181B783A68D2183B181B787968E0
:1008B000CB1812781A703B183A18127801321A7055
:1008C0000F23FB181B780F2BEAD9C046C046BD4644
:1008D00004B080BD80B582B000AF7860044B7A6808
:1008E0001A60FFF7ADFCC046BD4602B080BDC046F1
:1008F0008005002080B582B000AF7860074B7A6831
:100900001A607A68064B11001800FFF7BFFFFFF767
:1009100091FFC046BD4602B080BDC046BC04002069
:100920007005002080B582B000AF78600A00FB1C23
:100930001A70FB1C1B787A689A40FB1C1B781C21E0
:10094000CB1A7968D9400B0013431B011B097B604C
:100950007B681800BD4602B080BD0000F0B58DB0C8
:1009600000AF3861796100200021B862F96200218E
:10097000796244E02B48796A4118097808004021DF
:10098000091A08002038002803DB7E69C6403200BF
:1009900008E02020401A7E69864030003E69CE4043
:1009A000320002437869C840030001211140B96157
:1009B00000211940F961796A3720411A080020386E
:1009C000002803DBBE698640350008E02020401A7D
:1009D000BE69C6403000FE698E4035000543B869E7
:1009E00088400400B96A21433960F96A2943796073
:1009F00038687968B862F962796A01317962796A2E
:100A00003729B7DDBB6A00229343BB60FB6A1B0238
:100A10001B0AFB60BA68FB6810001900BD460DB0E8
:100A2000F0BDC046EC010020F0B58DB000AF3861DC
:100A3000796100200021B862F9620021796244E006
:100A40002B48796A4118097808003821091A0800EA
:100A50002038002803DB7E69C640320008E02020F1
:100A6000401A7E69864030003E69CE403200024323
:100A70007869C840030001211140B9610021194083
:100A8000F961796A2F20411A08002038002803DB19
:100A9000BE698640350008E02020401ABE69C64085
:100AA0003000FE698E4035000543B8698840040077
:100AB000B96A21433960F96A2943796038687968ED
:100AC000B862F962796A01317962796A2F29B7DDF2
:100AD000BB6A00229343BB60FB6A1B041B0CFB60D8
:100AE000BA68FB6810001900BD460DB0F0BDC046E5
:100AF00024020020F0B58BB000AFB860F960002090
:100B00000021386279620021F96144E02748F969DF
:100B10004118097808004021091A080020380028E7
:100B200003DBFE68C640320008E02020401AFE6861
:100B300086403000BE68CE4032000243F868C840AC
:100B40000300012111403961002119407961F969DF
:100B50003F20411A08002038002803DB3E69864008
:100B6000350008E02020401A3E69C64030007E690A
:100B70008E4035000543386988400400396A2143B6
:100B80003960796A294379603868796838627962AE
:100B9000F9690131F961F9693F29B7DD3A6A7B6A80
:100BA00010001900BD460BB0F0BDC0461C0100206E
:100BB000F0B58DB000AF786100200021B862F96215
:100BC0000021796236E02448796A411809780800E2
:100BD0002021091A7869C8400100B9600021F96034
:100BE0000121B8680140B9610021F8680140F9614C
:100BF000796A2F20411A08002038002803DBBE69DB
:100C00008640330008E02020401ABE69C64030000C
:100C1000FE698E4033000343B86988400200B96A18
:100C200011430C00F96A19430D00BC62FD62796A38
:100C300001317962796A2F29C5DDBB6A00229343AD
:100C40003B60FB6A1B041B0C7B603A687B681000EE
:100C50001900BD460DB0F0BD9C010020F0B58BB071
:100C600000AFB860F960002179621B2108200918E3
:100C7000C9190020087069E01B2108200918C9194A
:100C8000087801008000091A49002A31080020383C
:100C9000002803DBFE68C640320008E02020401A2E
:100CA000FE6886403000BE68CE4032000243F868DD
:100CB000C84003003F211140B96100211940F9618A
:100CC000F9690907B86904090C43F9690D0920009D
:100CD00002210840B9690126314001437961F9696F
:100CE000C907B86940083860386808433860F9694E
:100CF0004908796038680F21014039611B260820B6
:100D00003618F119097817488E00796971180901A8
:100D100040183969411809780E001B21082008186D
:100D2000C11909780720411A890030008840010064
:100D30000800796A014379621B2608217018C119DD
:100D4000087808217118C919013008701B21082082
:100D50000918C919097807298ED97B6A1800BD4678
:100D60000BB0F0BD54020020F0B587B000AF786042
:100D7000002179610021396130E01C48396941184E
:100D8000097808002021091A7868C84001000C0081
:100D900000210D0001212140B96000212940F960A6
:100DA00039691F20411A08002038002803DBBE687B
:100DB0008640330008E02020401ABE68C64030005C
:100DC000FE688E4033000343B8688840020010007C
:100DD00079690143796139690131396139691F29BB
:100DE000CBDD7B691800BD4607B0F0BDCC0100200B
:100DF000F0B58BB000AFB860F96000200021386218
:100E000079620021F96144E02748F96941180978BD
:100E100008004021091A08002038002803DBFE687A
:100E2000C640320008E02020401AFE6886403000AC
:100E3000BE68CE4032000243F868C840030001217A
:100E400011403961002119407961F9693F20411A47
:100E500008002038002803DB3E698640350008E0A2
:100E60002020401A3E69C64030007E698E40350021
:100E70000543386988400400396A21433960796A3A
:100E8000294379603868796838627962F969013193
:100E9000F961F9693F29B7DD3A6A7B6A10001900E8
:100EA000BD460BB0F0BDC0465C010020F0B58DB072
:100EB00000AFF861B96169460E00B969481E7862F1
:100EC00008003861002078613A697B691000800E63
:100ED0003A617B619D0105433B699C0108003860D4
:100EE000002078603C687D682300980E2B009B01F1
:100EF000FB60FB680343FB6023009B01BB600B00AE
:100F0000DB000733DB08DB006A46D31A9D466B46DD
:100F10000733DB08DB003B620023BB6211E0BB6AE6
:100F2000DB00FA69D318BA69511EBA6A891A1A68BD
:100F30005B68386AC90041180A604B60BB6A0133BC
:100F4000BB62BA6ABB699A42E9DB0023FB620EE02E
:100F5000FB6ADB00FA69D1183A6AFB6ADB00D31836
:100F60001A685B680A604B60FB6A0133FB62FA6ACD
:100F7000BB699A42ECDBB546C046BD460DB0F0BD3C
:100F8000F0B5C9B000AF38657965BA64FB6400227A
:100F90000023B82148268919C9190A604B60BA6C28
:100FA000FB6C10001900FFF7D9FC02000B00B02108
:100FB0008819C01902604360B4208319DB191B68CB
:100FC0001A018B19DB191B681C0F14438319DB19D9
:100FD0001B681D0F2300D4229219D2191360300010
:100FE0008B19DB191B681B011B09D0221218D2199F
:100FF0001360CF231B18DA19002313706FE0CF257D
:101000004826AB19DB191A78AD4B9A5CD424A31986
:10101000DB191B6811001800FFF784FC0300300087
:101020002218D21913602B18DB191A78A44B9A5C7A
:10103000D0263318DB191B6811001800FFF772FC6B
:101040000300320048201118C9190B602318DB195E
:101050001B683B6400237B643B6C7C6C19000909B2
:10106000F9631B07BB631318DB191B683B63002381
:101070007B63B96BFA6B08003B6B7C6B1E003043E3
:10108000B86223001A43FA620023B96AFA6A0800B8
:1010900098430300902048268419E4192360130024
:1010A0001B021B0A94229219D2191360AB19DB1987
:1010B0001C788319DB191A685B6810001900FFF7A8
:1010C000B3FC10239B19DA19E300D3181860596098
:1010D000AB19DB191B78AA19D21901331370CF236E
:1010E00048255B19DB191B780F2B88D910235B1956
:1010F000DB1910211800FFF7D9FE00220023A824D5
:101100006119C9190A604B603A6D7B6D10001900B6
:10111000FFF7F0FC02000B0021004819C019026023
:101120004360AC2328005B19DB191B681B003B6282
:1011300000237B623B6AC8221218D21913600B1875
:10114000DB191B68C4221218D2191360C3231B18A1
:10115000DB1900221A7065E0C42548242B19DB191D
:101160001B68A4221219D1190B602B19DB191B68FB
:101170001800FFF71DFD02000B0098210819C01987
:1011800002604360C3263319DB191B781020021953
:10119000D219DB00D3181A685B6808000919C9194D
:1011A0000968514039609C210919C91909685940D9
:1011B000796022000319D9193B687C680B604C6088
:1011C00014000319DB191A685B6810001900FFF797
:1011D00045FD03002A19D1190B602B19DB191B6877
:1011E0001800FFF7C1FD03002A19D1190B6029006F
:1011F0002B19DB191A68C8200319DB191B68534027
:101200000A19D1190B60A42221001319DB191B68DC
:101210004218D21913607318DB191A787318DB1986
:1012200001321A70C32348215B18DB191B780F2B7E
:1012300092D900220023A8200C004118C9190A6085
:101240004B60C42322009B18DB191B68BB61002381
:10125000FB61BB691B007B6100233B61C8239B18BA
:10126000DB191B68BB600023FB603C697D692300C0
:10127000B968FA680E00334348268619F6193360B8
:101280002B001343AC2248241219D21913600319FE
:10129000DB191A685B6810001900FFF7A9FD02004E
:1012A0000B00B8210819C019026043600B19DB1943
:1012B0001A685B6810001900BD4649B0F0BDC04611
:1012C0000C010020F0B5F44CA54400AF9B239B001B
:1012D000FE1830609A26B600BB1919609926B60030
:1012E000B9190A6000220023A421890079180A6034
:1012F0004B609B2080003B181B6808331B78FC2147
:1013000049007E1833600023FE267600BE19336044
:101310000B00FB181B681B06FA21490079180B60AB
:101320000023F82149007E1833603B181B680933FD
:101330001B78F42040003E1833600023F626760028
:10134000BE1933603B181B681D0400231C000B00F2
:10135000FB181A685B6811002143F0204000381820
:1013600001602B43F2256D007D192B609B208000CE
:1013700006003D182B680A331B78EC256D0079199F
:101380000B600023EE21490079180B607D192B6852
:101390001B02EA256D007D192B600023E8256D00F6
:1013A00079190B60F0235B00FB1819685A68080074
:1013B0007B195C681B681D002843E4256D007D19BE
:1013C000286023001A43E6235B00FB181A603200F2
:1013D0001600B81803680B331B78E0256D007819E8
:1013E00003600023E2204000381803607819036886
:1013F0001B00DE204000381803600023DC256D0050
:1014000078190360E4235B00FB1819685A68080028
:101410007B195C681B681D002843D8256D007D1969
:10142000286023001A43DA20400038180260320096
:101430001600B81803680C331B78D4256D00781992
:1014400003600023D6204000381803607819036831
:1014500044681A00120AD2204000381802601B06A5
:10146000D0256D0078190360D8235B00FB1819683C
:101470005A6808007B195C681B681D002843CC254E
:101480006D007D19286023001A43CE2040003818D3
:1014900002603200B81803680D331B78C820400082
:1014A00039180B600023CA21490079180B603818DD
:1014B000016842680B001B0C100000049725AD006A
:1014C0007E1930607819006818437B1918600B008A
:1014D0001B049625AD0078190360CC235B00FB1834
:1014E00019685A6808007B195C681B681D0028434E
:1014F000C4256D007D19286023001A43C6204000D2
:10150000381802609B229200B81803680E331B78CB
:10151000C020400039180B600023C221490079180F
:101520000B603818016842680B001B0E10000002A7
:101530009525AD007E1930607819006818437B1935
:1015400018600B001B029425AD0078190360C423BA
:101550005B00FB1819685A6808007B195C681B68F7
:101560001D002843BC256D007E19306023001A43FE
:10157000BE235B00FB181A609B229200BB181B68FD
:101580000F331B78B820400039180B600023BA21B4
:10159000490079180B607B191C685D6823003818B6
:1015A0000168426808000343A22080003E183360AF
:1015B0002B001343A325AD007D192B609B229200C5
:1015C000BB181B681B78B4256D0079190B600023CC
:1015D000B621490079180B607B191B681B06B225E0
:1015E0006D007D192B600023B02149007D182B6010
:1015F000BD182B6801331B78AC256D007E19336054
:101600000023AE267600BE1933607D192B681B04BB
:10161000AA256D007D192B600023A8256D007E1979
:10162000336079184A68096808007D192B686C686E
:101630001D002843A4256D007D19286023001A434E
:10164000A6256D007D192A609B239B00FD182B6841
:1016500002331B78A0256D007E1933600023A2267B
:101660007600BE1933607D192B681B029E256D0024
:101670007D192B6000239C256D007E193360A42109
:10168000490079184A68096808007D192B686C6858
:101690001D002843982501E064FDFFFF6D007D19C2
:1016A000286023001A439A256D007D192A609B2328
:1016B0009B00FD182B6803331B7894256D007E1961
:1016C0003360002396267600BE1933607D192B689F
:1016D0001B0092256D007D192B60002390256D0065
:1016E0007E1933609821490079184A680968080012
:1016F0007D192B686C681D0028438C256D007D19B1
:10170000286023001A438E256D007D192A609B23D3
:101710009B00FD182B6804331B7888256D007E190B
:10172000336000238A267600BE1933607D192B684A
:101730006C681A00120A86256D007D192A601B0646
:1017400084256D007E1933608C21490079184A6820
:10175000096808007D192B686C681D0028437D1CF2
:10176000FF35286023001A437D1DFF352A609B2327
:101770009B00FD182B6805331B78F82579190B6041
:101780000023FC2179180B607D1929686A680B0019
:101790001B0C100000049325AD007E1930607E19EB
:1017A000306818437D1928600B001B049225AD009A
:1017B00079190B60791CFF314A68096808007D19A6
:1017C0002B686C681D002843F0257D1928602300D4
:1017D0001A43F4257D192A609B239B00FD182B6872
:1017E00006331B78E8257E1933600023EC26BE19EA
:1017F00033607D1929686A680B001B0E1000000217
:101800009125AD007E1930607E19306818437D192E
:1018100028600B001B029025AD007E193360F0217B
:1018200079184A68096808007D192B686C681D00E2
:101830002843E0257E19306023001A43E4217918FB
:101840000A609B239B00FB181B6807331B78D82179
:101850007E1833600023DC26BE1933607B191C68B8
:101860005D68230079184A68096808000343A020CE
:1018700080003E1833602B001343A125AD007D1975
:101880002B609A229200BB181B6808331B78D02566
:101890007E1933600023D426BE1933607B191B6880
:1018A0001B06CC257D192B600023C8252C007D1933
:1018B0002B60BD182B6809331B78C0257E19336057
:1018C0000023C426BE1933607D192B681B04BC2578
:1018D0007D192B600023B8257E1933603E193168CD
:1018E000726808007D192B686C681D002843B025BC
:1018F0007E19306023001A43B426BE1932609A2341
:101900009B00FE1833680A331B78A8257E193360C4
:101910000023AC26BE1933607E1933681B02A4264F
:10192000BE1933600023A0257E193360B022BE1893
:101930003168726808007D192B686C681D002843A7
:1019400098257E19306023001A439C26BE19326008
:101950009A239B00FE1833680B331B7890257E1961
:10196000336000239426BE1933607E1933681B0050
:101970008C26BE193360002388257E193360982297
:10198000BE183168726808007D192B686C681D00EC
:10199000284380257E19306023001A438426BE190F
:1019A00032609A239B001E00FA1813680C331B78D0
:1019B000BB670023FB67BB6FFC6F1A00120A7A67D4
:1019C0001B063B677A191168526808003B6F7C6FF1
:1019D0001D002843B86623001A43FA663300FA183C
:1019E00013680D331B783B6600237B66396E7A6E75
:1019F0000B001B0C100000048F25AD007E19306019
:101A00007E19306818437D1928600B001B048E2551
:101A1000AD007A191360B96EFA6E08007D192B6853
:101A20006C681D002843B86523001A43FA659A23A1
:101A30009B00FA1813680E331B783B6500237B6507
:101A4000396D7A6D0B001B0E100000028D25AD0064
:101A50007E1930607E19306818437D1928600B00AC
:101A60001B028C25AD007A191360B96DFA6D080060
:101A70007D192B686C681D002843B86423001A4345
:101A8000FA649A239B00FB181B680F331B783B6496
:101A900000237B64BC6CFD6C2300396C7A6C0800FD
:101AA00003439E2080003E1833602B0013439F2287
:101AB0009200BA18136005003B181A685B68A220F0
:101AC0008000381841680068FFF75AFA02000B00DE
:101AD000A424A40039190A604B607B191A685B685A
:101AE000A0218900791808684968FFF749FA0200BF
:101AF0000B009C25AD0079190A604B609926B60051
:101B0000BB191B680F33190020003B181A685B686B
:101B1000131CDBB20B70A52189007B181B681A0609
:101B20003B181B681B0A8A24A4003D192B603B1933
:101B30001B6813433A1913607B181B681B0A8B221E
:101B40009200BA181360BB191B680E331A003B19B8
:101B50001B7813707B181B681A043B181B681B0C3E
:101B60008824A4003D192B603B191B6813433A19C4
:101B700013607B181B681B0C89229200BA18136033
:101B8000BB191B680D331A003B191B7813707B18A7
:101B90001B681A023B181B681B0E862080003C182D
:101BA00023603B181B6813433A1813607B181B68AB
:101BB0001B0E87229200BA181360BB191B680C33E6
:101BC0001A003B181B7813707B181B681B00BB6343
:101BD0000023FB6330003B181B680B331A003823CB
:101BE000FB181B7813707B181B681B0A3B630023D0
:101BF0007B633B181B680A331A003023FB181B78E1
:101C000013707B181B681B0CBB620023FB623B1824
:101C10001B6809331A002823FB181B7813707B18E4
:101C20001B681B0E3B6200237B623B181B6808335A
:101C30001A002023FB181B7813703B181B68D91D52
:101C40009C25AD007B191A685B68131CDBB20B7016
:101C50009D2189007B181B681A067B191B681B0ACB
:101C60008424A4003E1933603B191B6813433A19BE
:101C700013607B181B681B0A85229200BA18136038
:101C80003B181B689A1D3B191B7813707B181B6847
:101C90001A047B191B681B0C8224A4003E193360B4
:101CA0003B191B6813432200BC1823607B181B6878
:101CB0001B0C8324A4003C1923603B181B680533CC
:101CC000BA1812781A707B181B681B027A191268EE
:101CD000120E8024A4003D192A603A1912681A4392
:101CE0003B191A607B181B681B0E81229200BA18E0
:101CF00013603B181B6804333A1912781A707B186A
:101D00001B681B00BB610023FB613B181B6803338E
:101D10003A7E1A707B181B681B0A3B6100237B61AB
:101D20003B181B6802333A7C1A707B181B681B0C2B
:101D3000BB600023FB603B181B6801333A7A1A70C2
:101D40007B181B681B0E3B6000237B603A783B18B6
:101D50001B681A70C046BD46A7239B009D44F0BD7A
:101D6000B0B592B000AF4723FB1800221A7013E001
:101D700047203B181B78EB4AD15C3B181B78EA4A9A
:101D8000D25C3B181B784A40D1B2E84AD1543B1888
:101D90001A783B1801321A704723FB181B780F2B57
:101DA000E6D900F09BFB00F0CFF900F057FA00F005
:101DB00025FA9023DB0500228021180000F032FE76
:101DC00034203B18DA4A32CA32C3116819601279DA
:101DD0001A712023FB18D64A32CA32C3116819601F
:101DE00012791A713B00D34A32CA32C312681A60A0
:101DF00001235B4204003918CF48112201F006FD8F
:101E000021007B185A7810203B181A707B189A789A
:101E10003B185A707B18DA783B189A707B181A793D
:101E20003B18DA707B185A793B181A717B189A792B
:101E30003B185A717B18DA793B189A717B181A7A19
:101E40003B18DA717B185A7A3B181A727B189A7A07
:101E50003B185A727B18DA7A3B189A727B181A7BF5
:101E60003B18DA727B185A7B3B181A737B189A7BE3
:101E70003B185A737B18DA7B3B189A737B181A7CD1
:101E80003B18DA737B181B78402B00D18FE000DD04
:101E9000EEE0302B72D000DDEAE0102B02D0202BD8
:101EA00053D0E5E0A54B00221A709023DB050122F8
:101EB0008021180000F0B6FD10217B181A783B0035
:101EC0001A707B185A783B005A707B189A783B003E
:101ED0009A707B18DA783B00DA707B181A793B002D
:101EE0001A717B185A793B005A717B189A793B001A
:101EF0009A717B18DA793B00DA717B181A7A3B0009
:101F00001A727B185A7A3B005A727B189A7A3B00F5
:101F10009A727B18DA7A3B00DA727B181A7B3B00E4
:101F20001A737B185A7B3B005A737B189A7B3B00D1
:101F30009A737B18DA7B3B00DA739023DB0500226F
:101F40008021180000F06EFD96E07C4B01221A7093
:101F50009023DB0501228021180000F063FD3A0088
:101F600077491023FB18180000F054FA9023DB0582
:101F700000228021180000F055FD7DE06F4B022209
:101F80001A709023DB0501228021180000F04AFD21
:101F90003A006C491023FB181800FFF793F99023BF
:101FA000DB0500228021180000F03CFD64E0634B5B
:101FB00003221A7010217B181A783B001A707B18C4
:101FC0005A783B005A707B189A783B009A707B18BD
:101FD000DA783B00DA707B181A793B001A717B18AB
:101FE0005A793B005A717B189A793B009A717B1899
:101FF000DA793B00DA717B181A7A3B001A727B1887
:102000005A7A3B005A727B189A7A3B009A727B1874
:10201000DA7A3B00DA727B181A7B3B001A737B1862
:102020005A7B3B005A737B189A7B3B009A737B1850
:10203000DA7B3B00DA733D4B1800FEF74BFC0520C2
:1020400000F0B0FA9023DB0501228021180000F097
:10205000E9FC3B001800FEF74DFC052000F0A2FA59
:102060009023DB0500228021180000F0DBFC03E058
:10207000324B00221A70C0463B001B78FE2B04D165
:102080002023FB1800221A7003E02023FB180122F2
:102090001A703B001A7820217B185A703B005A783E
:1020A0007B189A703B009A787B18DA703B00DA78DC
:1020B0007B181A713B001A797B185A713B005A79C8
:1020C0007B189A713B009A797B18DA713B00DA79B8
:1020D0007B181A723B001A7A7B185A723B005A7AA4
:1020E0007B189A723B009A7A7B18DA723B00DA7A94
:1020F0007B181A733B001A7B7B185A733B005A7B80
:102100007B189A733B009A7B7B18DA733B00DA7B6F
:102110007B181A7401235B4279180748112201F0D9
:10212000D5FA4DE6740400208404002088050020C0
:102130002041000834410008980500208405002053
:10214000540400206404002090B599B000AF2C2402
:102150003B19180034231A00002101F0CDFF1C2385
:10216000FB18180010231A00002101F0C5FF3B1DC9
:10217000180018231A00002101F0BEFF21007B186F
:1021800003221A607B1805225A607B180122DA604C
:102190007B1810221A617B1800225A627B181800E3
:1021A00000F05EFC031E01D000F0A0F81C217B189B
:1021B00007221A607B1801225A607B1800229A605D
:1021C0007B180022DA607B180021180000F0CEFF97
:1021D000031E01D000F08AF83B1D01221A603B1D4E
:1021E00003229A603B1D180001F02EF9031E01D056
:1021F00000F07CF8C046BD4619B090BD80B500AF78
:10220000144B154A1A60134B962212025A60114B56
:1022100000229A600F4B0022DA600E4B00221A61F6
:102220000C4B0C225A610B4B00229A61094B002285
:10223000DA61084B00221A62064B00225A62054BF3
:10224000180001F0EFF9031E01D000F04FF8C0466E
:10225000BD4680BD980500200038014090B589B08A
:1022600000AF0C243B19180014231A00002101F0C0
:1022700043FF1D4B5A691C4B8021C9030A435A6115
:10228000194B5A698023DB031340BB60BB68164BB4
:102290005A69154B802189020A435A61124B5A69C7
:1022A00080239B0213407B607B689023DB05002228
:1022B0008021180000F0B6FB21007B1880221A60F4
:1022C0007B1801225A607B1800229A607B1800223A
:1022D000DA607A189023DB051100180000F03AFA52
:1022E000C046BD4609B090BD0010024080B500AFA9
:1022F00072B6C046FEE7000080B582B000AF0F4B5B
:102300009A690E4B01210A439A610C4B9B69012289
:1023100013407B607B68094BDA69084B80214905D3
:102320000A43DA61054BDA6980235B0513403B60A1
:102330003B68C046BD4602B080BDC04600100240AA
:1023400090B58BB000AF786014243B1918001423AB
:102350001A00002101F0D0FE7B681B681D4A9342E1
:1023600033D11D4B9A691C4B8021C9010A439A61E4
:10237000194B9A698023DB0113403B613B69164B83
:102380005A69154B802189020A435A61124B5A69D6
:1023900080239B021340FB60FB683B19C022D200E4
:1023A0001A6021007B1802225A607B1800229A6072
:1023B0007B180322DA607B1801221A617A189023B5
:1023C000DB051100180000F0C5F9C046BD460BB092
:1023D00090BDC046003801400010024080B500AFFB
:1023E000FEE780B500AFFEE780B500AFC046BD4652
:1023F00080BD80B500AFC046BD4680BD80B500AF92
:1024000000F0B4F8C046BD4680BD80B500AFC04600
:10241000BD4680BD80B586B000AFF860B9607A6017
:1024200000237B6110E07B69FA68D31819787B6917
:10243000BA68D3181A787B697868C3184A40D2B250
:102440001A707B6901337B617B690F2BEBDDC04622
:10245000C046BD4606B080BD13488546FFF7D5FF90
:1024600012480168090E124A914205D111481249D9
:10247000016012481249016012481349134A0023AF
:1024800002E0D458C4500433C4188C42F9D3104A23
:10249000104C002301E013600432A242FBD301F090
:1024A00007FEFFF75DFCFEE70018002004000000B7
:1024B0001F00000018100240010000000000014051
:1024C0000000000000000020A0040020844100085B
:1024D000A004002024060020FEE7000080B500AF25
:1024E000074B1A68064B10210A431A60002000F0BF
:1024F00009F8FFF701FF00231800BD4680BDC04664
:102500000020024090B583B000AF7860144B1C6887
:10251000144B1B781900FA239800FDF7F5FD030012
:1025200019002000FDF7F0FD0300180000F005F988
:10253000031E01D001230FE07B68032B0BD87968C1
:1025400001235B420022180000F0E2F8064B7A6893
:102550001A60002300E001231800BD4603B090BDBF
:10256000940400209C0400209804002080B500AF53
:10257000054B1B781A00054B1B68D218034B1A60D9
:10258000C046BD4680BDC0469C04002020060020F9
:1025900080B500AF024B1B681800BD4680BDC04629
:1025A0002006002080B584B000AF7860FFF7F0FF10
:1025B0000300BB607B68FB60FB68013305D00A4BFE
:1025C0001B781A00FB689B18FB60C046FFF7E0FF12
:1025D0000200BB68D31AFA689A42F7D8C046C046D0
:1025E000BD4604B080BDC0469C04002090B583B0B9
:1025F00000AF02003960FB1D1A70FB1D1B787F2B9A
:1026000028D82F4AFB1D1B785BB29B08C0339B0068
:102610009B58FA1D1278110003220A40D200FF21B4
:1026200091400A00D2431A4011003B689B01FF22EF
:102630001A40FB1D1B78180003230340DB009A405F
:102640001F48FB1D1B785BB29B080A43C0339B00ED
:102650001A5031E01B4AFB1D1B7819000F230B4059
:10266000083B9B0806339B00D31804331B68FA1DF4
:102670001278110003220A40D200FF2191400A0083
:10268000D2431A4011003B689B01FF221A40FB1DF8
:102690001B78180003230340DB009A400948FB1D08
:1026A0001B781C000F232340083B9B080A4306337A
:1026B0009B00C31804331A60C046BD4603B090BDEA
:1026C00000E100E000ED00E080B582B000AF78608E
:1026D0007B685A1E80235B049A4201D3012310E0D9
:1026E0000A4B7A68013A5A6001235B4203211800C1
:1026F000FFF77CFF054B00229A60044B07221A600B
:1027000000231800BD4602B080BDC04610E000E0C6
:1027100080B584B000AFB9607A600F217B18021CCD
:102720001A70BA687B181B785BB211001800FFF7AB
:102730005DFFC046BD4604B080BD80B582B000AF2D
:1027400078607B681800FFF7BFFF03001800BD46E4
:1027500002B080BD80B586B000AF786039600023DC
:102760007B6149E13B681B6801217A6991400A005D
:102770001340FB60FB68002B00D13AE13B685B68CB
:1027800003221340012B05D03B685B6803221340F2
:10279000022B30D17B689B683B617B695B00032225
:1027A0009A401300DA433B6913403B613B68DA68A7
:1027B0007B695B009A4013003A6913433B617B6875
:1027C0003A699A607B685B683B6101227B699A4049
:1027D0001300DA433B6913403B613B685B681B09AC
:1027E00001221A407B699A4013003A6913433B6106
:1027F0007B683A695A603B685B6803221340032B8D
:1028000017D07B68DB683B617B695B0003229A40E1
:102810001300DA433B6913403B613B689A687B696C
:102820005B009A4013003A6913433B617B683A6945
:10283000DA603B685B6803221340022B23D17B697B
:10284000DA087B6808329200D3583B617B69072223
:1028500013409B000F229A401300DA433B69134058
:102860003B613B681A697B6907210B409B009A40DA
:1028700013003A6913433B617B69DA087B680832CD
:1028800092003969D1507B681B683B617B695B00B2
:1028900003229A401300DA433B6913403B613B68D3
:1028A0005B6803221A407B695B009A4013003A6917
:1028B00013433B617B683A691A603B685A68C023DE
:1028C0009B02134000D194E0514B9A69504B012177
:1028D0000A439A614E4B9B6901221340BB60BB685F
:1028E0004C4A7B699B0802339B009B583B617B6988
:1028F000032213409B000F229A401300DA433B69E6
:1029000013403B617A689023DB059A420DD07B68C7
:10291000414A934207D07B68404A934201D1022347
:1029200004E0052302E0012300E000237A6903218B
:102930000A40920093403A6913433B6135497B69F1
:102940009B0802339B003A695A50354B9B683B61A8
:10295000FB68DA433B6913403B613B685A6880235C
:102960005B03134003D03A69FB6813433B612C4B74
:102970003A699A602A4BDB683B61FB68DA433B6942
:1029800013403B613B685A6880239B03134003D08C
:102990003A69FB6813433B61214B3A69DA60204B8B
:1029A0005B683B61FB68DA433B6913403B613B6812
:1029B0005A6880239B02134003D03A69FB68134393
:1029C0003B61174B3A695A60154B1B683B61FB68CA
:1029D000DA433B6913403B613B685A6880235B02E2
:1029E000134003D03A69FB6813433B610C4B3A69CF
:1029F0001A607B6901337B613B681A687B69DA4046
:102A0000131E00D0AEE6C046C046BD4606B080BD2F
:102A10000010024000000140000400480008004887
:102A20000004014080B582B000AF7860080011005A
:102A3000BB1C021C1A807B1C0A1C1A707B1C1B7896
:102A4000002B04D0BB1C1A887B689A6103E0BB1C76
:102A50001A887B689A62C046BD4602B080BD0000FD
:102A600080B588B000AF78607B68002B02D101236D
:102A700000F076FB7B681B680122134000D18EE0DA
:102A8000C54B5B680C221340042B0ED0C24B5B6815
:102A90000C221340082B17D1BF4B5A68C0235B028E
:102AA0001A4080235B029A420ED1BB4B1A688023E6
:102AB0009B02134000D171E07B685B68002B00D063
:102AC0006CE0012300F04CFB7B685B68012B07D1B5
:102AD000B14B1A68B04B802149020A431A602FE0BB
:102AE0007B685B68002B0CD1AB4B1A68AA4BAB49D7
:102AF0000A401A60A84B1A68A74BA9490A401A60F5
:102B00001EE07B685B68052B0ED1A34B1A68A24BB5
:102B10008021C9020A431A609F4B1A689E4B80218C
:102B200049020A431A600BE09B4B1A689A4B9B4977
:102B30000A401A60984B1A68974B99490A401A60E4
:102B40007B685B68002B14D0FFF722FD0300BB619C
:102B500008E0FFF71DFD0200BB69D31A642B01D901
:102B60000323FDE28C4B1A6880239B021340F0D0B4
:102B700015E0FFF70DFD0300BB6108E0FFF708FD5E
:102B80000200BB69D31A642B01D90323E8E2824B0C
:102B90001A6880239B021340F0D100E0C0467B6896
:102BA0001B680222134000D16CE07B4B5B680C2257
:102BB00013400ED0784B5B680C221340082B1FD1BA
:102BC000754B5A68C0235B021A4080231B029A424D
:102BD00016D1714B1B680222134005D07B68DB685D
:102BE000012B01D00123BBE26B4B1B68F8229343FE
:102BF00019007B681B69DA00674B0A431A6041E0E1
:102C00007B68DB68002B24D0634B1A68624B012180
:102C10000A431A60FFF7BCFC0300BB6108E0FFF742
:102C2000B7FC0200BB69D31A022B01D9032397E238
:102C3000594B1B6802221340F1D0574B1B68F822F6
:102C4000934319007B681B69DA00534B0A431A60EF
:102C500018E0514B1A68504B01218A431A60FFF764
:102C600097FC0300BB6108E0FFF792FC0200BB6920
:102C7000D31A022B01D9032372E2474B1B680222AD
:102C80001340F1D17B681B680822134036D07B6863
:102C9000DB69002B19D0404B5A6A3F4B01210A4394
:102CA0005A62FFF775FC0300BB6108E0FFF770FC98
:102CB0000200BB69D31A022B01D9032350E2364B21
:102CC0005B6A02221340F1D018E0334B5A6A324B50
:102CD00001218A435A62FFF75BFC0300BB6108E0F5
:102CE000FFF756FC0200BB69D31A022B01D903235C
:102CF00036E2294B5B6A02221340F1D17B681B68E4
:102D00000422134000D1B5E01F203B1800221A70A6
:102D1000214BDA6980235B05134010D11E4BDA6921
:102D20001D4B802149050A43DA611B4BDA69802378
:102D30005B051340FB60FB683B1801221A70194BBE
:102D40001A6880235B0013401AD1164B1A68154B82
:102D5000802149000A431A60FFF71AFC0300BB6197
:102D600008E0FFF715FC0200BB69D31A642B01D9F8
:102D70000323F5E10B4B1A6880235B001340F0D06E
:102D80007B689B68012B0FD1034B1A6A024B012110
:102D90000A431A6236E0C04600100240FFFFFEFF01
:102DA000FFFFFBFF007000407B689B68002B0CD18D
:102DB000CA4B1A6AC94B01218A431A62C74B1A6A65
:102DC000C64B04218A431A621CE07B689B68052B72
:102DD0000CD1C24B1A6AC14B04210A431A62BF4B81
:102DE0001A6ABE4B01210A431A620BE0BB4B1A6AF6
:102DF000BA4B01218A431A62B84B1A6AB74B0421B5
:102E00008A431A627B689B68002B14D0FFF7C0FBD3
:102E10000300BB6109E0FFF7BBFB0200BB69D31AEB
:102E2000AF4A934201D903239AE1AC4B1B6A0222B9
:102E30001340F0D013E0FFF7ABFB0300BB6109E0E8
:102E4000FFF7A6FB0200BB69D31AA54A934201D93A
:102E5000032385E1A14B1B6A02221340F0D11F23FB
:102E6000FB181B78012B05D19C4BDA699B4B9D49C4
:102E70000A40DA617B681B681022134063D07B68CC
:102E80005B69012B2AD1954B5A6B944B04210A4361
:102E90005A63924B5A6B914B01210A435A63FFF7D5
:102EA00077FB0300BB6108E0FFF772FB0200BB6920
:102EB000D31A022B01D9032352E1884B5B6B022208
:102EC0001340F1D0854B5B6BF822934319007B686C
:102ED0009B69DA00814B0A435A6334E07B685B6983
:102EE000053311D17D4B5A6B7C4B04218A435A63C5
:102EF0007A4B5B6BF822934319007B689B69DA007D
:102F0000764B0A435A631EE0744B5A6B734B042191
:102F10000A435A63714B5A6B704B01218A435A63BF
:102F2000FFF736FB0300BB6108E0FFF731FB02004F
:102F3000BB69D31A022B01D9032311E1674B5B6BE9
:102F400002221340F1D17B681B68202213405CD021
:102F5000624B5B680C2213400C2B0ED05F4B5B68FE
:102F60000C221340082B14D15C4B5A68C0235B021F
:102F70001A40C0235B029A420BD1584B5A6B8023F4
:102F80009B02134040D07B681B6A012B3CD001237D
:102F9000E6E07B681B6A002B1BD0504B5A6B4F4BF3
:102FA000802149020A435A63FFF7F2FA0300BB612A
:102FB00008E0FFF7EDFA0200BB69D31A022B01D932
:102FC0000323CDE0454B5A6B80239B021340F0D086
:102FD0001BE0424B5A6B414B43490A405A63FFF78F
:102FE000D7FA0300BB6108E0FFF7D2FA0200BB6921
:102FF000D31A022B01D90323B2E0384B5A6B80233A
:103000009B021340F0D100E0C0467B685B6A002B56
:1030100000D1A4E0314B5B680C221340082B00D197
:1030200078E07B685B6A022B4CD12C4B1A682B4BE7
:103030002E490A401A60FFF7ABFA0300BB6108E0B3
:10304000FFF7A6FA0200BB69D31A022B01D90323AA
:1030500086E0224B1A6880239B041340F0D11F4B5B
:10306000DB6A0F22934319007B681A6B1B4B0A43E0
:10307000DA621A4B5B681E4A134019007B68DA6AF1
:103080007B689B6A1A43154B0A435A60134B1A68B4
:10309000124B802149040A431A60FFF779FA0300B2
:1030A000BB6108E0FFF774FA0200BB69D31A022B78
:1030B00001D9032354E0094B1A6880239B04134071
:1030C000F0D04CE0054B1A68044B08490A401A60DE
:1030D000FFF75EFA0300BB6115E0C0460010024036
:1030E00088130000FFFFFFEFFFFFFEFFFFFFFFFE63
:1030F000FF7FC2FFFFF74CFA0200BB69D31A022B15
:1031000001D903232CE0184B1A6880239B04134039
:10311000F0D124E07B685B6A012B01D101231FE021
:10312000114B5B687B61104BDB6A3B617A69C023A2
:103130005B021A407B689B6A9A420ED13B690F2260
:103140001A407B681B6B9A4207D17A69F0239B0374
:103150001A407B68DB6A9A4201D0012300E0002319
:103160001800BD4608B080BD0010024080B584B094
:1031700000AF786039607B68002B01D10123BFE08C
:10318000614B1B68012213403A689A4211D95E4B89
:103190001B680122934319005B4B3A680A431A608B
:1031A000594B1B68012213403A689A4201D001230F
:1031B000A6E07B681B680222134015D07B681B6861
:1031C0000422134006D0514B5A68504BE021C900ED
:1031D0000A435A604D4B5B68F022934319007B68A9
:1031E0009A684A4B0A435A607B681B680122134065
:1031F0004CD07B685B68012B07D1444B1A68802355
:103200009B02134020D101237AE07B685B68022B8C
:1032100007D13E4B1A6880239B04134014D101232D
:103220006EE07B685B68032B07D1384B5A6B8023B9
:103230009B02134008D1012362E0344B1B68022239
:10324000134001D101235BE0304B5B6803229343C1
:1032500019007B685A682D4B0A435A60FFF798F9AA
:103260000300FB6009E0FFF793F90200FB68D31A43
:10327000274A934201D9032342E0244B5B680C2286
:103280001A407B685B689B009A42ECD11E4B1B681E
:10329000012213403A689A4211D21B4B1B6801224B
:1032A00093431900184B3A680A431A60164B1B687F
:1032B000012213403A689A4201D0012320E07B6842
:1032C0001B680422134009D0104B5B68114A13405D
:1032D00019007B68DA680D4B0A435A6000F020F849
:1032E00001000A4B5B681B090F2213400A4AD35C9A
:1032F0000A00DA40094B1A600020FFF703F90023A7
:103300001800BD4604B080BD0020024000100240FD
:1033100088130000FFF8FFFF4441000894040020D8
:1033200080B586B000AF0023FB600023BB600023A4
:103330007B6100237B6000233B612D4B5B68FB605E
:10334000FB680C2213400C2B46D048D8042B02D02B
:10335000082B03D043E0274B3B6143E0FB689B0C09
:103360000F221340244AD35C7B60214BDB6A0F227F
:103370001340224AD35CBB60FA68C0235B021A4048
:1033800080235B029A4209D1B9681A48FCF7BCFE57
:1033900003001A007B6853437B611AE0FA68C0237C
:1033A0005B021A40C0235B029A4209D1B9681448F3
:1033B000FCF7AAFE03001A007B6853437B6108E018
:1033C000B9681048FCF7A0FE03001A007B6853435D
:1033D0007B617B693B6105E0094B3B6102E0094B86
:1033E0003B61C0463B691800BD4606B080BDC04683
:1033F00000100240E07072005C4100086C4100085F
:10340000006CDC0200127A0080B500AF024B1B6832
:103410001800BD4680BDC0469404002080B500AFB2
:10342000FFF7F2FF0100064B5B681B0A07221340FF
:10343000044AD35CD9400B001800BD4680BDC0468D
:10344000001002405441000880B586B000AF78609B
:1034500000233B610023FB607B681A6880235B02CA
:10346000134000D18EE017203B1800221A70674BE2
:10347000DA6980235B05134010D1644BDA69634B32
:10348000802149050A43DA61604BDA6980235B05D4
:103490001340BB60BB683B1801221A705C4B1A6872
:1034A00080235B0013401AD1594B1A68584B802176
:1034B00049000A431A60FFF76BF803003B6108E01C
:1034C000FFF766F802003B69D31A642B01D9032386
:1034D00097E04F4B1A6880235B001340F0D04B4BB2
:1034E0001A6AC0239B001340FB60FB68002B34D09A
:1034F0007B685A68C0239B001340FA689A422CD01C
:10350000424B1B6A434A1340FB60404B1A6A3F4BD5
:10351000802149020A431A623C4B1A6A3B4B3E49DE
:103520000A401A62394BFA681A62FB68012213409A
:1035300013D0FFF72DF803003B6109E0FFF728F8EF
:1035400002003B69D31A354A934201D9032358E05C
:103550002E4B1B6A02221340F0D02C4B1B6A2D4AC3
:10356000134019007B685A68284B0A431A621723D4
:10357000FB181B78012B05D1244BDA69234B284912
:103580000A40DA617B681B680122134009D01F4B97
:103590001B6B0322934319007B689A681B4B0A43F9
:1035A0001A637B681B682022134009D0174B1B6BE2
:1035B0001022934319007B68DA68144B0A431A639C
:1035C0007B681A6880239B02134009D00F4B1B6B4A
:1035D0008022934319007B685A690C4B0A431A6393
:1035E0007B681A688023DB00134009D0074B1B6BF4
:1035F0004022934319007B681A69044B0A431A63FB
:1036000000231800BD4606B080BDC0460010024031
:1036100000700040FFFCFFFFFFFFFEFF881300006B
:10362000FFFFFFEF80B582B000AF78607B68002BB2
:1036300001D1012344E07B68DB6F002B07D17B685D
:103640007822002199547B681800FEF779FE7B6888
:103650002422DA677B681B681A687B681B68012173
:103660008A431A607B68180000F0B8F90300012B48
:1036700001D1012324E07B685B6A002B03D07B68C7
:10368000180000F0EBFA7B681B685A687B681B68BF
:103690000D490A405A607B681B689A687B681B6802
:1036A0002A218A439A607B681B681A687B681B68BA
:1036B00001210A431A607B68180000F083FB0300B5
:1036C0001800BD4602B080BDFFB7FFFF80B58AB0CD
:1036D00002AFF860B9603B60BB1D1A80FB68DB6F0E
:1036E000202B00D08DE0BB68002B03D0BB1D1B88B6
:1036F000002B01D1012385E0FB689A6880235B01E0
:103700009A4209D1FB681B69002B05D1BB680122D5
:10371000134001D0012375E0FB68842200219950F9
:10372000FB682122DA67FEF733FF03007B61FB6849
:10373000BA1D502112885A52FB68BA1D52211288B4
:103740005A52FB689A6880235B019A4208D1FB6851
:103750001B69002B04D10023FB61BB68BB6103E044
:10376000BB68FB610023BB6130E07A69F8683B68A5
:10377000009313000022802100F0CCFB031E04D034
:10378000FB682022DA6703233CE0FB69002B0BD1A6
:10379000BB691A88FB681B68D205D20D92B21A85E4
:1037A000BB690233BB6108E0FB691A78FB681B68E0
:1037B00092B21A85FB690133FB61FB6852229B5A66
:1037C0009BB2013B99B2FB6852229952FB6852228C
:1037D0009B5A9BB2002BC8D17A69F8683B6800936A
:1037E00013000022402100F095FB031E04D0FB686B
:1037F0002022DA67032305E0FB682022DA67002332
:1038000000E002231800BD4608B080BD80B58AB034
:1038100002AFF860B9603B60BB1D1A80FB68802274
:103820009B58202B00D0D1E0BB68002B03D0BB1DE0
:103830001B88002B01D10123C9E0FB689A68802313
:103840005B019A4209D1FB681B69002B05D1BB685B
:103850000122134001D00123B9E0FB68842200213A
:103860009950FB68802222219950FB6800221A6639
:10387000FEF78EFE03007B61FB68BA1D582112889B
:103880005A52FB68BA1D5A2112885A52FB689A682C
:1038900080235B019A420DD1FB681B69002B04D188
:1038A000FB685C224C4999522EE0FB685C22FF21A8
:1038B000995229E0FB689B68002B0DD1FB681B69BE
:1038C000002B04D1FB685C22FF2199521CE0FB68AD
:1038D0005C227F21995217E0FB689A6880235B0580
:1038E0009A420DD1FB681B69002B04D1FB685C2256
:1038F0007F21995208E0FB685C223F21995203E046
:10390000FB685C22002199521223FB18FA685C21A3
:10391000525A1A80FB689A6880235B019A4208D148
:10392000FB681B69002B04D10023FB61BB68BB61F2
:1039300003E0BB68FB610023BB613BE07A69F86888
:103940003B68009313000022202100F0E3FA031EDD
:1039500005D0FB68802220219950032337E0FB69C2
:10396000002B0ED1FB681B689B8C9BB21222BA18ED
:10397000128813409AB2BB691A80BB690233BB61DB
:103980000FE0FB681B689B8C9BB2DBB21222BA185B
:103990001288D2B21340DAB2FB691A70FB690133A4
:1039A000FB61FB685A229B5A9BB2013B99B2FB68B0
:1039B0005A229952FB685A229B5A9BB2002BBDD1C6
:1039C000FB68802220219950002300E00223180088
:1039D000BD4608B080BDC046FF01000080B588B07C
:1039E00000AF78601E23FB1800221A707B689A686B
:1039F0007B681B691A437B685B691A437B68DB69D8
:103A000013437B617B681B681B688D4A1340190058
:103A10007B681B687A690A431A607B681B685B686D
:103A2000884A134019007B68DA687B681B680A4380
:103A30005A607B689B697B617B681B6A7A69134368
:103A40007B617B681B689B687F4A134019007B6819
:103A50001B687A690A439A607B681B687B4A9342B9
:103A600027D17B4B1B6B03221340032B0DD01BD89C
:103A7000022B14D018D8002B02D0012B0AD013E04F
:103A80001F23FB1800221A7021E01F23FB180222BB
:103A90001A701CE01F23FB1804221A7017E01F2362
:103AA000FB1808221A7012E01F23FB1810221A704C
:103AB0000DE07B681B68674A934204D11F23FB1803
:103AC00000221A7003E01F23FB1810221A707B6873
:103AD000DA6980231B029A425CD11F23FB181B78F2
:103AE000082B15D018DC042B0DD015DC002B02D0D0
:103AF000022B05D010E0FFF791FC0300BB6112E040
:103B0000554BBB610FE0FFF70BFC0300BB610AE004
:103B100080231B02BB6106E00023BB611E23FB1850
:103B200001221A70C046BB69002B00D17AE0BB6944
:103B30005A007B685B685B08D2187B685B68190079
:103B40001000FCF7E1FA03003B613B690F2B1CD925
:103B50003A6980235B029A4217D23B699AB20E20DF
:103B60003B180F218A431A803B695B089BB20722EE
:103B7000134099B23B183A1812880A431A807B689E
:103B80001B683A181288DA604CE01E23FB180122E9
:103B90001A7047E01F23FB181B78082B15D018DC80
:103BA000042B0DD015DC002B02D0022B05D010E029
:103BB000FFF734FC0300BB6112E0274BBB610FE051
:103BC000FFF7AEFB0300BB610AE080231B02BB6171
:103BD00006E00023BB611E23FB1801221A70C046B9
:103BE000BB69002B1ED07B685B685A08BB69D21882
:103BF0007B685B6819001000FCF786FA03003B61E4
:103C00003B690F2B0AD93A6980235B029A4205D29D
:103C10003B699AB27B681B68DA6003E01E23FB18DD
:103C200001221A707B6800229A667B680022DA669D
:103C30001E23FB181B781800BD4608B080BDC04687
:103C4000F369FFEFFFCFFFFFFFF4FFFF00380140F4
:103C5000001002400044004000127A0080B582B09B
:103C600000AF78607B685B6A012213400BD07B68F1
:103C70001B685B684A4A134019007B689A6A7B6834
:103C80001B680A435A607B685B6A022213400BD0B0
:103C90007B681B685B68434A134019007B68DA6ADB
:103CA0007B681B680A435A607B685B6A0422134086
:103CB0000BD07B681B685B683B4A134019007B682C
:103CC0001A6B7B681B680A435A607B685B6A082230
:103CD00013400BD07B681B685B68344A13401900A3
:103CE0007B685A6B7B681B680A435A607B685B6A17
:103CF000102213400BD07B681B689B682C4A134032
:103D000019007B689A6B7B681B680A439A607B6822
:103D10005B6A202213400BD07B681B689B68254A96
:103D2000134019007B68DA6B7B681B680A439A6052
:103D30007B685B6A402213401DD07B681B685B6810
:103D40001D4A134019007B681A6C7B681B680A4384
:103D50005A607B681A6C80235B039A420BD17B68A4
:103D60001B685B68154A134019007B685A6C7B68B6
:103D70001B680A435A607B685B6A802213400BD041
:103D80007B681B685B680E4A134019007B689A6C5D
:103D90007B681B680A435A60C046BD4602B080BDBE
:103DA000FFFFFDFFFFFFFEFFFFFFFBFFFF7FFFFFAA
:103DB000FFEFFFFFFFDFFFFFFFFFEFFFFFFF9FFFB3
:103DC000FFFFF7FF80B592B002AF78607B68842276
:103DD00000219950FEF7DCFB0300FB637B681B6846
:103DE0001B6808221340082B2CD1FB6B8022910307
:103DF0007868464A0092002200F08CF8031E21D019
:103E0000EFF310837B627B6ABB630123BB62BB6AF7
:103E100083F31088C0467B681B681A687B681B6840
:103E200080218A431A60BB6BFB62FB6A83F31088B4
:103E3000C0467B682022DA677B687822002199548B
:103E400003235FE07B681B681B6804221340042B7C
:103E500046D1FB6B8022D10378682C4A0092002265
:103E600000F058F8031E3BD0EFF31083FB60FB68B3
:103E70007B6301233B613B6983F31088C0467B6809
:103E80001B681A687B681B6821490A401A607B6BB3
:103E90007B617B6983F31088C046EFF31083BB61BD
:103EA000BB693B630123FB61FB6983F31088C04658
:103EB0007B681B689A687B681B6801218A439A604B
:103EC0003B6B3B623B6A83F31088C0467B68802271
:103ED000202199507B68782200219954032311E016
:103EE0007B682022DA677B688022202199507B68DA
:103EF00000221A667B6800225A667B6878220021BD
:103F0000995400231800BD4610B080BDFFFFFF018B
:103F1000DFFEFFFF80B584B000AFF860B9603B60A2
:103F2000FB1D1A704BE0BB69013348D0FEF730FB34
:103F300002003B68D31ABA699A4202D3BB69002BCC
:103F400001D103234BE0FB681B681B68042213406C
:103F500035D0FB681B68DB6908221340082B11D1A0
:103F6000FB681B6808221A62FB68180000F03CF826
:103F7000FB68842208219950FB687822002199541B
:103F800001232CE0FB681B68DA6980231B011A40BF
:103F900080231B019A4212D1FB681B688022120108
:103FA0001A62FB68180000F01FF8FB6884222021C9
:103FB0009950FB6878220021995403230FE0FB6895
:103FC0001B68DB69BA681340BA68D31A5A42534176
:103FD000DBB21A00FB1D1B789A42A4D00023180004
:103FE000BD4604B080BD000080B58EB000AF7860E3
:103FF000EFF310837B617B697B630123BB61BB694A
:1040000083F31088C0467B681B681A687B681B684E
:1040100026490A401A607B6BFB61FB6983F31088B9
:10402000C046EFF310833B623B6A3B6301237B6234
:104030007B6A83F31088C0467B681B689A687B683C
:104040001B6801218A439A603B6BBB62BB6A83F3A6
:104050001088C0467B681B6E012B18D1EFF31083CC
:10406000BB60BB68FB620123FB60FB6883F31088C5
:10407000C0467B681B681A687B681B6810218A43EE
:104080001A60FB6A3B613B6983F31088C0467B681A
:104090008022202199507B6800221A667B680022CA
:1040A0009A66C046BD460EB080BDC046DFFEFFFF2B
:1040B00070B500260C4D0D4C641BA410A64209D10E
:1040C000002600F021F80A4D0A4C641BA410A642F9
:1040D00005D170BDB300EB5898470136EEE7B30049
:1040E000EB5898470136F2E77C4100087C41000814
:1040F0007C4100088041000803008218934200D1EF
:10410000704719700133F9E7F8B5C046F8BC08BC30
:104110009E467047F8B5C046F8BC08BC9E4670473E
:10412000000000000000000000000000000000008F
:10413000000000000000000000000000000000007F
:104140000000000000000000000000000102030465
:104150000607080900000000010203040203040529
:10416000060708090A0B0C0D0E0F101001020304BC
:0C41700005060708090A0B0C0D0E0F10C5
:04417C00E90000084E
:04418000C100000872
:10418400637C777BF26B6FC53001672BFED7AB7610
:10419400CA82C97DFA5947F0ADD4A2AF9CA472C0BB
:1041A400B7FD9326363FF7CC34A5E5F171D8311528
:1041B40004C723C31896059A071280E2EB27B27549
:1041C40009832C1A1B6E5AA0523BD6B329E32F84C1
:1041D40053D100ED20FCB15B6ACBBE394A4C58CFB9
:1041E400D0EFAAFB434D338545F9027F503C9FA88D
:1041F40051A3408F929D38F5BCB6DA2110FFF3D25B
:10420400CD0C13EC5F974417C4A77E3D645D19730E
:1042140060814FDC222A908846EEB814DE5E0BDB08
:10422400E0323A0A4906245CC2D3AC629195E4793F
:10423400E7C8376D8DD54EA96C56F4EA657AAE0899
:10424400BA78252E1CA6B4C6E8DD741F4BBD8B8A34
:10425400703EB5664803F60E613557B986C11D9E9A
:10426400E1F8981169D98E949B1E87E9CE5528DF11
:104274008CA1890DBFE6426841992D0FB054BB163D
:104284008D01020408102040801B36000101020247
:104294000202020201020202020202013A322A224C
:1042A4001A120A023C342C241C140C043E362E260A
:1042B4001E160E06403830282018100839312921DE
:1042C400191109013B332B231B130B033D352D25FA
:1042D4001D150D053F372F271F170F07280830100E
:1042E4003818402027072F0F37173F1F26062E0E9A
:1042F40036163E1E25052D0D35153D1D24042C0CAA
:1043040034143C1C23032B0B33133B1B22022A0AB9
:1043140032123A1A210129093111391920010203F3
:10432400040504050607080908090A0B0C0D0C0D01
:104334000E0F101110111213141514151617181945
:1043440018191A1B1C1D1C1D1E1F200110071415F3
:104354001D0C1C11010F171A05121F0A0208180E52
:10436400201B0309130D1E06160B041939312921CC
:10437400191109013A322A221A120A023B332B2359
:104384001B130B033C342C243F372F271F170F0715
:104394003E362E261E160E063D352D251D150D0501
:1043A4001C140C040E110B180105031C0F06150A2E
:1043B40017130C041A0810071B140D0229341F25A7
:1043C4002F371E28332D21302C31273822352E2A21
:1043D40032241D200E040D01020F0B08030A060CE3
:1043E40005090007000F07040E020D010A060C0B55
:1043F4000905030804010E080D06020B0F0C09073A
:10440400030A05000F0C080204090107050B030E3B
:104414000A00060D0F01080E060B03040907020D1E
:104424000C00050A030D04070F02080E0C00010A14
:1044340006090B05000E070B0A040D0105080C06FE
:104444000903020F0D080A01030F04020B06070CEF
:1044540000050E090A00090E06030F05010D0C07DD
:104464000B0402080D0700090304060A0208050EDE
:104474000C0B0F010D060409080F03000B01020CBD
:10448400050A0E07010A0D0006090807040F0E03AA
:104494000B05020C070D0E030006090A01020805AC
:1044A4000B0C040F0D080B05060F00030407020C88
:1044B400010A0E090A0609000C0B070D0F01030E71
:1044C40005020804030F00060A010D080904050B80
:1044D4000C07020E020C0401070A0B060805030F61
:1044E4000D000E090E0B020C04070D0105000F0A46
:1044F400030908060402010B0A0D07080F090C053D
:104504000603000E0B080C07010E020D060F00092E
:104514000A0405030C010A0F09020608000D03042E
:104524000E07050B0A0F0402070C090506010D0E00
:10453400000B0308090E0F0502080C030700040A08
:10454400010D0B060403020C09050F0A0B0E0107EB
:104554000600080D040B020E0F00080D030C0907DA
:10456400050A06010D000B070409010A0E03050CD8
:10457400020F080601040B0D0C03070E0A0F0608B0
:1045840000050902060B0D0801040A070905000FBE
:104594000E02030C0D020804060F0B010A09030E98
:1045A40005000C07010F0D080A0307040C05060B90
:1045B400000E0902070B0401090C0E0200060A0D85
:1045C4000F03050802010E07040A080D0F0C090069
:1045D4000305060BD5D2BF2F746B4C08BF2D5CFBB3
:1045E400FC07611E00000000000000004B5C4DBB96
:1045F40026FBF29DE563730F9D7AB638346B9F4FAB
:10460400D91968EF96DCCEA17746A7BFAC411958FB
:1046140024395E8400127A000400000001000000C6
:040000050800245972
:00000001FF
